:100000000EC028C027C026C025C024C023C022C0DF
:1000100021C020C01FC01EC01DC01CC01BC0112499
:100020001FBECFE5D2E0DEBFCDBF10E0A0E6B0E05E
:10003000ECEFF4E002C005900D92A037B107D9F7BC
:1000400020E0A0E7B0E001C01D92A03FB207E1F7B9
:10005000C2D152C2D5CF86B38A7390E0089528E00A
:1000600030E094E045E018BA87FF02C048BB01C009
:1000700098BB880F21503109B1F70895CF93DF93D2
:10008000DC01EB019B0135952795CD0166E070E021
:1000900022D28C589F4FFC01E20FF31F9081C0FFCA
:1000A00004C04295407F9F7001C0907F492BCD01D5
:1000B00066E070E010D28C589F4FFC01E20FF31FF6
:1000C0004083DF91CF910895AB019B013595279532
:1000D00066E070E000D28C589F4FFC01E20FF31FE6
:1000E000808140FD82958F700895982F9295907F22
:1000F000892BE4E7F0E08083818382838383848398
:100100008583369690E0EC3EF907A9F708957F9233
:100110008F929F92AF92BF92CF92DF92EF92FF9217
:100120000F931F93CF93DF936C017B014A01590119
:10013000C0E0D0E000E010E00C151D052CF5B70183
:10014000C801C2DF782EB701C8010196BDDFE72DD7
:10015000F0E0EE0FFF1FEE0FFF1FE80DF91DEC0F93
:10016000FD1F90819295907FE82FF0E0EE0FFF1F2A
:10017000EE0FFF1FE80DF91DEC0FFD1F8081892B8D
:100180006EDF0E5F1F4FD8CF8601043111052CF5AD
:10019000B701C80199DF782EB701C801019694DF35
:1001A000E72DF0E0EE0FFF1FEE0FFF1FEA0DFB1D26
:1001B000EC0FFD1F90819295907FE82FF0E0EE0FFD
:1001C000FF1FEE0FFF1FEA0DFB1DEC0FFD1F8081CF
:1001D000892B45DF0E5F1F4FD8CF2196C430D10544
:1001E00009F0A8CFDF91CF911F910F91FF90EF9071
:1001F000DF90CF90BF90AF909F908F907F900895A9
:100200009F92AF92BF92CF92DF92EF92FF920F93A5
:100210001F93CF93DF93EC016B017A01CC15DD05C1
:10022000A4F5A12CB12C00E010E0BE01C8014CDF08
:10023000982EBE01C801019647DFE92DF0E0EE0FD0
:10024000FF1FEE0FFF1FEE0DFF1DEA0DFB1D90813E
:100250009295907FE82FF0E0EE0FFF1FEE0FFF1F4B
:10026000EE0DFF1DEA0DFB1D8081892BF8DE0E5F70
:100270001F4F04311105C9F68FEFA81AB80A84E0A0
:10028000A816B10481F62196C9CFDF91CF911F91B5
:100290000F91FF90EF90DF90CF90BF90AF909F9025
:1002A0000895AC016CE070E080E090E0A9CFEF929F
:1002B000FF920F931F93CF93DF9300E010E0C0E015
:1002C000D0E0E12CF12C8091700090917100081722
:1002D000190749F48091EC009091ED008E159F056F
:1002E00011F48FEF16C0809172009091730008177F
:1002F000190771F48091EE009091EF008E159F0523
:1003000039F4209771F3C730D10559F381E801C062
:1003100080E0A5DE8FEFE81AF80A8AE0E816F1041B
:1003200091F62196C830D10561F60F5F1F4F063058
:10033000110529F6DF91CF911F910F91FF90EF905A
:1003400008950A9738F481E090E06630710520F056
:1003500080E0089580E090E00895CF93DF93CDB7DB
:10036000DEB760970FB6F894DEBF0FBECDBF20E1B9
:10037000E0E6F0E0DE01119601900D922A95E1F79A
:10038000880F991FE1E0F0E0EC0FFD1FE80FF91F67
:100390008081918160960FB6F894DEBF0FBECDBF0D
:1003A000DF91CF9108958FE087BB18BA84E090E089
:1003B0009093ED008093EC00909371008093700017
:1003C00081E090E09093EF008093EE0090937300B3
:1003D000809372000895E7DFA091EC00B091ED00EA
:1003E000E0917000F091710086B38A73823091F0D1
:1003F000482F50E0883089F04031510599F031E0C4
:1004000020E04032510509F030E0832F922F20E0A8
:1004100030E00CC02FEF3FEF02C021E030E080E081
:1004200090E004C020E030E08FEF9FEFBC016A0F46
:100430007B1F6A307105C0F6A9014E0F5F1F463061
:10044000510590F6E091EE00F091EF006E177F07F6
:1004500091F4E0917200F09173004E175F0759F428
:10046000860F971F8A30910570F4240F351F2630B0
:10047000310558F008C07093ED006093EC00509384
:1004800071004093700013DFA7CF7093ED0060936D
:10049000EC0050937100409370008730910591F407
:1004A0002330310579F487E090E057DF9093EF0037
:1004B0008093EE0083E090E050DF90937300809390
:1004C0007200E1CF9093EF008093EE0030937300C1
:1004D00020937200D8CF0024552704C0080E591F5E
:1004E000880F991F009729F076956795B8F37105E5
:0C04F000B9F7802D952F0895F894FFCFE8
:1004FC00000000000000FFFF000000000000FFFFF4
:00000001FF
