:100000000EC028C027C026C025C024C023C022C0DF
:1000100021C020C01FC01EC01DC01CC01BC0112499
:100020001FBECFE5D2E0DEBFCDBF10E0A0E6B0E05E
:10003000E6EBF4E002C005900D92A037B107D9F7C6
:1000400020E0A0E7B0E001C01D92AC3EB207E1F7AE
:1000500091D12FC2D5CF86B38A7390E0089528E05E
:1000600030E094E045E018BA87FF02C048BB01C009
:1000700098BB880F21503109B1F70895CF93DF93D2
:10008000DC01EB019B0135952795CD0166E070E021
:10009000FFD18E589F4FFC01E20FF31F9081C0FFEC
:1000A00004C04295407F9F7001C0907F492BCD01D5
:1000B00066E070E0EDD18E589F4FFC01E20FF31F18
:1000C0004083DF91CF910895AB019B013595279532
:1000D00066E070E0DDD18E589F4FFC01E20FF31F08
:1000E000808140FD82958F700895982F9295907F22
:1000F000892BE2E7F0E0808381838283838384839A
:100100008583369690E0EA3EF907A9F708957F9235
:100110008F929F92AF92BF92CF92DF92EF92FF9217
:100120000F931F93CF93DF936C017B014A01590119
:10013000C0E0D0E000E010E00C151D052CF5B70183
:10014000C801C2DF782EB701C8010196BDDFE72DD7
:10015000F0E0EE0FFF1FEE0FFF1FE80DF91DEC0F93
:10016000FD1F90819295907FE82FF0E0EE0FFF1F2A
:10017000EE0FFF1FE80DF91DEC0FFD1F8081892B8D
:100180006EDF0E5F1F4FD8CF8601043111052CF5AD
:10019000B701C80199DF782EB701C801019694DF35
:1001A000E72DF0E0EE0FFF1FEE0FFF1FEA0DFB1D26
:1001B000EC0FFD1F90819295907FE82FF0E0EE0FFD
:1001C000FF1FEE0FFF1FEA0DFB1DEC0FFD1F8081CF
:1001D000892B45DF0E5F1F4FD8CF2196C430D10544
:1001E00009F0A8CFDF91CF911F910F91FF90EF9071
:1001F000DF90CF90BF90AF909F908F907F900895A9
:100200009F92AF92BF92CF92DF92EF92FF920F93A5
:100210001F93CF93DF93EC016B017A01CC15DD05C1
:10022000A4F5A12CB12C00E010E0BE01C8014CDF08
:10023000982EBE01C801019647DFE92DF0E0EE0FD0
:10024000FF1FEE0FFF1FEE0DFF1DEA0DFB1D90813E
:100250009295907FE82FF0E0EE0FFF1FEE0FFF1F4B
:10026000EE0DFF1DEA0DFB1D8081892BF8DE0E5F70
:100270001F4F04311105C9F68FEFA81AB80A84E0A0
:10028000A816B10481F62196C9CFDF91CF911F91B5
:100290000F91FF90EF90DF90CF90BF90AF909F9025
:1002A0000895AC016CE070E080E090E0A9CF20916F
:1002B0006800309169008217930739F4209160003B
:1002C000309161006217730789F020916A003091C4
:1002D0006B008217930769F480916200909163002C
:1002E0006817790731F481E090E0089580E090E0AC
:1002F00008958FEF9FEF0895CF93DF93CDB7DEB7CB
:1003000060970FB6F894DEBF0FBECDBFFE013196E9
:1003100020E1DF011D922A95E9F72FEF3FEF3C879F
:100320002B87880F991FE80FF91F808191816096B4
:100330000FB6F894DEBF0FBECDBFDF91CF91089509
:100340000A9738F481E090E06630710520F080E093
:10035000089580E090E008958FE087BB18BA82E0AE
:1003600090E09093EB008093EA009093710080936B
:1003700070000895F1DF6091EA007091EB00409108
:1003800070005091710086B38A73823091F0282FEB
:1003900030E0883091F020313105A9F091E080E023
:1003A0002032310509F090E0092F182F812C912C73
:1003B0000EC088248A94982C03C088248394912C9E
:1003C00000E010E004C0812C912C0FEF1FEF7801AA
:1003D000E60EF71E8AE0E816F104A8F66401C40EE2
:1003E000D51E96E0C916D10470F6B601C7015FDFCD
:1003F00097FD1DC0EC01CC0FDD1FFE01E859FF4F3A
:100400003F0180819181080F191F0A30110508F002
:10041000B2CFCE01805A9F4F5C01FC018081918157
:10042000880E991EF6E08F16910450F0A4CFF0923A
:10043000EB00E092EA00D0927100C09270009BCF76
:10044000B401C80134DF97FF96CFF092EB00E09241
:10045000EA00D0927100C09270000530110571F46D
:1004600085E08816910451F485E090E045DFF301C2
:1004700091838083F501918380837DCFFE01E859CC
:10048000FF4F11830083C05ADF4F9982888273CF58
:100490000024552704C0080E591F880F991F009784
:1004A00029F076956795B8F37105B9F7802D952FEA
:0604B0000895F894FFCF4F
:1004B600010004000200040001000200060004001E
:00000001FF
