:100000000EC01DC01CC01BC01AC019C018C017C02C
:1000100016C015C014C013C012C011C010C01124E6
:100020001FBECFE5D2E0DEBFCDBF20E0A0E6B0E04E
:1000300001C01D92A83DB207E1F739D186C1E0CFDA
:1000400086B38A7390E0089528E030E094E045E0BC
:1000500018BA87FF06C048BB880F21503109C1F785
:10006000089598BBF9CF0F931F93CF93DF93E82F99
:10007000392F8B01EB01D595C7958E2F66E070E087
:1000800053D1DC01A05ABF4FAC0FBD1F2C9100FF14
:1000900014C04295407F2F70422B8E2F932F66E025
:1000A00070E042D1FC01E05AFF4FEC0FFD1F40838E
:1000B000DF91CF911F910F910895207FEDCF9B018C
:1000C000DB01B595A79566E070E02ED1FC01E05A02
:1000D000FF4FEA0FFB1F808120FD82958F700895EE
:1000E000982F9295907F892BE0E6F0E028ED30E0A4
:1000F00080838183828383838483858336962E17CE
:100100003F07B1F708957F928F929F92AF92BF926F
:10011000CF92DF92EF92FF920F931F93CF93DF93D3
:100120007C01962E872E5A016901D0E0C0E010E0D4
:1001300000E026C0692D782DC801C1DF782E692D19
:10014000782DC8010196BBDFE72DF0E0EE0FFF1F11
:10015000EE0FFF1FEA0DFB1DEC0FFD1F9081929526
:10016000907FE82FF0E0EE0FFF1FEE0FFF1FEA0D6C
:10017000FB1DEC0FFD1F8081892B66DF0E5F1F4F7B
:100180000E151F05BCF287010431110594F021966C
:10019000C430D10561F6DF91CF911F910F91FF908F
:1001A000EF90DF90CF90BF90AF909F908F907F9017
:1001B0000895692D782DC80182DF782E692D782D5C
:1001C000C80101967CDFE72DF0E0EE0FFF1FEE0F78
:1001D000FF1FEC0DFD1DEC0FFD1F90819295907F90
:1001E000E82FF0E0EE0FFF1FEE0FFF1FEC0DFD1DDF
:1001F000EC0FFD1F8081892B27DF0E5F1F4FC4CFBF
:100200009F92AF92BF92CF92DF92EF92FF920F93A5
:100210001F93CF93DF93EC016B017A01CC15DD05C1
:1002200064F0DF91CF911F910F91FF90EF90DF90DD
:10023000CF90BF90AF909F900895B12CA12C10E06B
:1002400000E0BE01C8013BDF982EBE01C801019647
:1002500036DFE92DF0E0EE0FFF1FEE0FFF1FEE0D72
:10026000FF1DEA0DFB1D90819295907FE82FF0E035
:10027000EE0FFF1FEE0FFF1FEE0DFF1DEA0DFB1D22
:100280008081892BE1DE0E5F1F4F04311105C9F615
:100290008FEFA81AB80A84E0A816B10481F6219657
:1002A000BDCFAC016CE070E090E080E0A9CF8FE0C2
:1002B00087BB18BA07E010E0CC24C394D12CE12C02
:1002C00082E0F82ED0E0C0E01BC0209749F4A601E0
:1002D000022E02C0440F551F0A94E2F7842B952B7F
:1002E000C00FD11FC830D1050CF028972F5F3F4FAA
:1002F0002830310551F7A8DE21E0E21AF10829F093
:1003000030E020E090E080E0E0CF8FEF90E722E067
:10031000815090402040E1F700C0000001501109D9
:1003200070F690E080E008950024552704C0080E80
:10033000591F880F991F009729F076956795B8F394
:0E0340007105B9F7802D952F0895F894FFCF21
:00000001FF
