:100000000EC028C027C026C025C024C023C022C0DF
:1000100021C020C01FC01EC01DC01CC01BC0112499
:100020001FBECFE5D2E0DEBFCDBF10E0A0E6B0E05E
:10003000E4ECF4E002C005900D92A236B107D9F7C6
:1000400020E0A2E6B0E001C01D92AC3DB207E1F7AE
:10005000EED136C2D5CF86B38A7390E0089528E0FA
:1000600030E094E045E018BA87FF02C048BB01C009
:1000700098BB880F21503109B1F70895CF93DF93D2
:10008000DC01EB019B0135952795CD0166E070E021
:10009000DBD18C599F4FFC01E20FF31F9081C0FF11
:1000A00004C04295407F9F7001C0907F492BCD01D5
:1000B00066E070E0C9D18C599F4FFC01E20FF31F3D
:1000C0004083DF91CF910895AB019B013595279532
:1000D00066E070E0B9D18C599F4FFC01E20FF31F2D
:1000E000808140FD82958F700895982F9295907F22
:1000F000892BE4E6F0E08083818382838383848399
:100100008583369690E0EC3DF907A9F708957F9234
:100110008F929F92AF92BF92CF92DF92EF92FF9217
:100120000F931F93CF93DF936C017B014A01590119
:10013000C0E0D0E000E010E00C151D052CF5B70183
:10014000C801C2DF782EB701C8010196BDDFE72DD7
:10015000F0E0EE0FFF1FEE0FFF1FE80DF91DEC0F93
:10016000FD1F90819295907FE82FF0E0EE0FFF1F2A
:10017000EE0FFF1FE80DF91DEC0FFD1F8081892B8D
:100180006EDF0E5F1F4FD8CF8601043111052CF5AD
:10019000B701C80199DF782EB701C801019694DF35
:1001A000E72DF0E0EE0FFF1FEE0FFF1FEA0DFB1D26
:1001B000EC0FFD1F90819295907FE82FF0E0EE0FFD
:1001C000FF1FEE0FFF1FEA0DFB1DEC0FFD1F8081CF
:1001D000892B45DF0E5F1F4FD8CF2196C430D10544
:1001E00009F0A8CFDF91CF911F910F91FF90EF9071
:1001F000DF90CF90BF90AF909F908F907F900895A9
:100200009F92AF92BF92CF92DF92EF92FF920F93A5
:100210001F93CF93DF93EC016B017A01CC15DD05C1
:10022000A4F5A12CB12C00E010E0BE01C8014CDF08
:10023000982EBE01C801019647DFE92DF0E0EE0FD0
:10024000FF1FEE0FFF1FEE0DFF1DEA0DFB1D90813E
:100250009295907FE82FF0E0EE0FFF1FEE0FFF1F4B
:10026000EE0DFF1DEA0DFB1D8081892BF8DE0E5F70
:100270001F4F04311105C9F68FEFA81AB80A84E0A0
:10028000A816B10481F62196C9CFDF91CF911F91B5
:100290000F91FF90EF90DF90CF90BF90AF909F9025
:1002A0000895AC016CE070E080E090E0A9CFCF93BE
:1002B000DF93CDB7DEB7A0970FB6F894DEBF0FBEC1
:1002C000CDBFFE01319620E2DF011D922A95E9F7AC
:1002D0002FEF3FEF38872F83388B2F87880F991F99
:1002E000E80FF91F80819181A0960FB6F894DEBFC8
:1002F0000FBECDBFDF91CF9108958FE087BB18BAB5
:100300000895EF92FF920F931F93CF93DF93EC0129
:100310007B01E5E0F0E020E137E20AE010E0CE0109
:10032000B901A3D0CB01E216F30659F0B9018CD084
:10033000C81BD90BC901B80198D09B01319779F737
:10034000BBD0DF91CF911F910F91FF90EF90089557
:100350000F931F93CF93DF9386B38A73282F30E0D8
:10036000C0916000D0916100883011F50091620069
:1003700010916300BE01C801C4DF892B59F4CE017E
:1003800069E070E061D0800F911F909363008093CB
:10039000620006C00C1B1D0B1093630000936200EB
:1003A0008091620090916300883E9340D8F184D0A0
:1003B0008230D9F40091620010916300BE01C8013F
:1003C000A0DF099759F4CE0167EF7FEF3DD0800F92
:1003D000911F909363008093620024C0C00FD11FCF
:1003E000D0936300C09362001DC0C230D1057CF081
:1003F0002032310549F4CE016AE070E036D07093C6
:100400006100609360000EC0C436D1055CF42031F9
:10041000310541F4CE016AE070E016D0909361009E
:1004200080936000DF91CF911F910F91089565DF58
:1004300080916200909163008336910511F088DF0E
:10044000F7CF83E090E033CF0024552704C0080E97
:10045000591F880F991F009729F076956795B8F373
:100460007105B9F7802D952F089597FB072E16F487
:10047000009406D077FD08D00BD007FC05D03EF4E1
:10048000909581959F4F0895709561957F4F089540
:10049000AA1BBB1B51E107C0AA1FBB1FA617B707AA
:1004A00010F0A61BB70B881F991F5A95A9F78095C6
:1004B0009095BC01CD01089581E090E0F89400C0D2
:0404C000F894FFCFDE
:0204C400010035
:00000001FF
